:100000000C94F3000C941B010C941B010C941B0129
:100010000C941B010C941B010C941B010C941B01F0
:100020000C941B010C941B010C941B010C941B01E0
:100030000C941B010C941B010C941B010C941B01D0
:100040000C94BD070C941B010C948B070C94650752
:100050000C941B010C941B010C941B010C941B01B0
:100060000C9407080C941B0107634236B79BD8A772
:100070001A39685618AEBAAB558C1D3CB7CC5763CD
:10008000BD6DEDFD753EF6177231BF000000803F7B
:1000900000407A10F35A00A0724E18090010A5D43F
:1000A000E80000E87648170000E40B54020000CA9C
:1000B0009A3B000000E1F5050000809698000000E2
:1000C00040420F000000A086010000001027000041
:1000D0000000E803000000006400000000000A00C7
:1000E000000000000100000000002C76D888DC67CA
:1000F0004F0823DFC1DFAE59E1B1B796E5E3E45322
:10010000C63AE651997696E8E6C28426EB898C9B3E
:1001100062ED407C6FFCEFBC9C9F40F2BAA56FA5DE
:10012000F490055A2AF75C936B6CF9676DC11BFC60
:10013000E0E40D47FEF520E6B500D0ED902E03007B
:10014000943577050080841E080000204E0A0000C8
:1001500000C80C333333330F986E12831141EF8D87
:100160002114893BE65516CFFEE6DB18D1844B38C7
:100170001BF77C1D901DA4BBE424203284725E22F8
:100180008100C9F124ECA1E53D2700000000250015
:1001900028002B0000000000240027002A00000097
:1001A00000002300260029000404040404040404BD
:1001B0000202020202020303030303030102040812
:1001C00010204080010204081020010204081020C1
:1001D0000000000800020100000304070000000006
:1001E00000000000260911241FBECFEFD8E0DEBFBB
:1001F000CDBF12E0A0E0B1E0EEE5F3E302C0059070
:100200000D92A632B107D9F724E0A6E2B2E001C010
:100210001D92AE38B207E1F710E0C3EFD0E004C0A2
:100220002197FE010E949519C23FD107C9F70E948C
:100230005F090C94AD190C940000E091FD02F0915F
:10024000FE02309729F010920603109205030994DC
:100250000895CF93DF93AC01E091FF02F09100038A
:100260003097F1F090910803809107039817C0F040
:1002700090E0292F30E02617370754F4D901A85908
:10028000BD4F240F351FE90128812C939F5FF1CFCB
:100290001092080360930703CB01DF91CF9109947B
:1002A000DF91CF910895AF92BF92CF92DF92EF92FC
:1002B000FF920F931F93CF93DF936C017B018B0110
:1002C000040F151FEB015E01AE18BF08C017D10760
:1002D00059F06991D601ED91FC910190F081E02DEA
:1002E000C6010995892B79F7C501DF91CF911F913F
:1002F0000F91FF90EF90DF90CF90BF90AF90089557
:10030000FC01538D448D252F30E0842F90E0821B1B
:10031000930B541710F0CF96089501970895FC01A0
:10032000918D828D981761F0A28DAE0FBF2FB11DF8
:100330005D968C91928D9F5F9F73928F90E0089550
:100340008FEF9FEF0895FC01918D828D981731F00A
:10035000828DE80FF11D858D90E008958FEF9FEF5E
:100360000895FC01918D228D892F90E0805C9F4F34
:10037000821B91098F739927089585EE93E00E945F
:10038000B10121E0892B09F420E0822F089580E05B
:1003900090E0892B29F00E94BD0181110C9400008E
:1003A0000895FC01A48DA80FB92FB11DA35ABF4F0A
:1003B0002C91848D90E001968F739927848FA68964
:1003C000B7892C93A089B1898C91837080648C93B8
:1003D000938D848D981306C00288F389E02D808167
:1003E0008F7D80830895EF92FF920F931F93CF9399
:1003F000DF93EC0181E0888F9B8D8C8D98131AC060
:10040000E889F989808185FF15C09FB7F894EE8946
:10041000FF896083E889F9898081837080648083A3
:100420009FBF81E090E0DF91CF911F910F91FF90EE
:10043000EF900895F62E0B8D10E00F5F1F4F0F7396
:100440001127E02E8C8D8E110CC00FB607FCFACF51
:10045000E889F989808185FFF5CFCE010E94D1011D
:10046000F1CFEB8DEC0FFD2FF11DE35AFF4FF08222
:100470009FB7F8940B8FEA89FB8980818062CFCF88
:10048000CF93DF93EC01888D8823B9F0AA89BB89CB
:10049000E889F9898C9185FD03C0808186FD0DC0B6
:1004A0000FB607FCF7CF8C9185FFF2CF808185FFD7
:1004B000EDCFCE010E94D101E9CFDF91CF91089518
:1004C000833081F028F4813099F08230A9F00895CA
:1004D0008730A9F08830C9F08430B1F48091800071
:1004E0008F7D03C0809180008F7780938000089576
:1004F00084B58F7784BD089584B58F7DFBCF8091BF
:10050000B0008F778093B00008958091B0008F7D08
:10051000F9CF1F93CF93DF93282F30E0F901E053F9
:10052000FE4F8491F901E454FE4FD491F901E8554E
:10053000FE4FC491CC23A9F0162F81110E946002B6
:10054000EC2FF0E0EE0FFF1FE657FE4FA591B491A0
:100550008FB7F894EC91111108C0D095DE23DC938D
:100560008FBFDF91CF911F910895DE2BF8CF3FB75A
:10057000F8948091F9029091FA02A091FB02B09157
:10058000FC0226B5A89B05C02F3F19F00196A11DBE
:10059000B11D3FBFBA2FA92F982F8827BC01CD01CD
:1005A000620F711D811D911D42E0660F771F881F2C
:1005B000991F4A95D1F70895CF92DF92EF92FF925B
:1005C0000E94B7026B017C010E94B7026C197D0981
:1005D0008E099F09683E734081059105A8F3FF903D
:1005E000EF90DF90CF9008952091AE02260F332731
:1005F000331F21323105ECF42091D202FC0190E04E
:1006000080E0243069F082E00895A091AE0221914B
:10061000AC0142575D4FA40FB52FB11D2C9301962D
:10062000861798F38091AE02680F6093AE0280E067
:10063000089581E008951092D20281E08093D4025F
:100640001092D30261E082E10E94890261E083E1BD
:100650000E948902E9EBF0E080818E7F80838081B7
:100660008D7F808388E48093B80085E48093BC000C
:1006700008950895E091080380910703E81730F486
:10068000F0E0E859FD4F808190E008958FEF9FEFF3
:10069000089590910803809107032FEF3FEF98177B
:1006A00048F4E92FF0E0E859FD4F208130E09F5FEA
:1006B00090930803C901089580910703909108035E
:1006C000891B990B0895CF93DF93CB01EA01642F27
:1006D0000E94F402CE01DF91CF910895CF93DF9372
:1006E0001F92CDB7DEB7698361E0CE0101960E940B
:1006F000F40281E090E00F90DF91CF91089590E0B7
:1007000080E00895CF93DF93CCEBD3E0CE018C5BF8
:1007100093403091070320910803321731F082E8AB
:1007200094E00E9449038993F1CFFC01E454FC4F0B
:1007300010829093070180930601DF91CF91089575
:10074000CF93DF93FC0101900020E9F73197AF01CF
:10075000481B590BBC0185EE93E00E945301EC014C
:1007600042E050E069E172E085EE93E00E945301BF
:100770008C0F9D1FDF91CF910895E0910903F091B7
:100780000A0386E292E0099546E252E0FA010190FE
:100790000020E9F7AF014652524066E272E082E87B
:1007A00094E00C946303FC0101900020E9F7319779
:1007B000E81BF90BB19728F4BC0187E492E00C9494
:1007C000A6190895CF93DF9385ED8093BC008091A7
:1007D0008A0290918B02A0918C02B0918D020796B3
:1007E000A11DB11D23E0B695A795979587952A95EC
:1007F000D1F72091BC0024FD03C01092D20236C074
:1008000040918A0250918B0260918C0270918D020E
:10081000452B462B472B69F30097A105B10541F005
:1008200025E32A95F1F700000197A109B109E1CF6D
:100830008091890291E0909388028823B9F0C09159
:10084000B800D091BA008091BC008A7B8093BC0034
:1008500060E082E10E94890260E083E10E948902F7
:100860000E941B03D093BA00C093B800DF91CF91D0
:1008700008950F931F93CF93DF93E8010E94C11354
:10088000B801F8019F01DF014D91CD01403269F0BF
:10089000493059F0CE17DF0751F09B018191882331
:1008A00031F0DB018D93BD01F8CFFC01EBCFF901F5
:1008B0001082DF91CF911F910F9108958F929F9297
:1008C000AF92BF92CF92DF92EF92FF926B017C01C9
:1008D00023EC35EF4CE851E40E941A194B015C01FE
:1008E00028EB3EE143E753E4C701B6010E94A91695
:1008F0009B01AC01C501B4010E941A170E94941714
:100900002DEC3CEC48E154E40E941A1920E030E060
:100910004AE754E40E941A192FE832EC46EE53E4F9
:100920000E941A174B015C0123E333E948E853E4C2
:10093000C701B6010E94A9169B01AC01C501B40113
:100940000E941A17FF90EF90DF90CF90BF90AF906A
:100950009F908F9008951092540310925303109219
:1009600056031092550310924303109244031092C1
:1009700045031092460310923F03109240031092D9
:1009800041031092420310924703109248031092C1
:10099000490310924A0310923B0310923C031092B9
:1009A0003D0310923E0380E090E0AAEFB2E4809312
:1009B0001C0390931D03A0931E03B0931F0380E0BC
:1009C00090E0A6E1B3E48093180390931903A093F9
:1009D0001A03B0931B0380E090E8ABEBB3E4809381
:1009E000240390932503A0932603B093270380E06C
:1009F00090E0A0E9B1E480934F0390935003A0935B
:100A00005103B093520380E090E0A8E4B2E48093F5
:100A1000370390933803A0933903B0933A0380E0EF
:100A200090E0A3ECB3E480932F0390933003A09362
:100A30003103B093320360E070E080E991E40E94FA
:100A40005E0420E030E84BEB53E40E941A1920E0EA
:100A500030E048E452E40E941A1920E030E048EC0B
:100A600052E40E941A1720E030E04AE754E40E9462
:100A70001A1760930F0370931003809311039093E0
:100A800012038CE293E4A4E9BEE3809313039093F2
:100A90001403A0931503B093160310922B03109226
:100AA0002C0310922D0310922E0310922A03089506
:100AB0000F931F93CF93DF93EC01FB01808182356D
:100AC00041F40E94AB041882DF91CF911F910F91E6
:100AD000089588838DE389831B8281818D3309F09A
:100AE00002C1228190ED920F9230C0F4838188235D
:100AF00021F08D3011F08A3089F42A8321E0808141
:100B0000833509F4BDC02CF5863409F48FC044F454
:100B1000853409F471C08FE38883ACC020E0EFCF47
:100B2000883409F448C08035B1F79A30A0F7CF0176
:100B300002960E94DF138333910568F790930101B9
:100B4000809300014AE0BE016E5F7F4F0E94FD135B
:100B500091C0863609F4B1C0ECF4863509F4B8C00A
:100B60008536C9F69A30B8F6CF0102960E94DF1397
:100B70008536910580F6BC01990F880B990B0E9470
:100B8000C81760933F037093400380934103909391
:100B900042032AC0803709F463C0873709F0BBCF0E
:100BA000222309F4B8CF81E09281913309F080E0EB
:100BB000809328035FC09A3008F0ADCFCF01029632
:100BC0000E94DF138536910508F0A5CFBC01990F6F
:100BD000880B990B0E94C8176093470370934803D2
:100BE0008093490390934A038E010E5F1F4F21E0CB
:100BF00047E00E9439043EC09A3008F08CCFCF0104
:100C000002960E94DF138536910508F084CFBC015F
:100C1000990F880B990B0E94C81760934303709338
:100C200044038093450390934603DECF9A3008F047
:100C300072CFCF0102960E94DF138536910508F02E
:100C40006ACFBC01990F880B990B0E94C81760935B
:100C50003B0370933C0380933D0390933E03C4CFCA
:100C6000222309F458CF81E09281913309F080E08A
:100C70008093170388818F3309F026CF198224CF00
:100C80009A3008F048CFCF0102960E94DF139C01F2
:100C9000255031092F31310508F03DCFBC01990FA6
:100CA000880B990B0E94C81760930201709303018F
:100CB000809304019093050197CF222309F42BCF51
:100CC00081E09281913309F080E080932903D2CFB3
:100CD000222309F420CF81E09281913309F080E052
:100CE00080935703C7CF8F3309F015CF82818823B4
:100CF00029F08D3019F08A3009F00DCFE081E354EE
:100D0000E53308F008CF0E2E000CFF0BE657F94F25
:100D10000C9495191C078B05EF0601078B05E60659
:100D2000D4068B058B058B058B058B05DD063307FC
:100D30008B058B054307BF068B055C074F078B05AB
:100D40008B058B058B058B058B058B058B058B0523
:100D50008B058B058B058B05F80659078B058B05D5
:100D60000A078B0525078B058B058B0513073C07A9
:100D70008B058B058B058B058B058B054C078091AF
:100D80005503909156034CE3489F9001499F300DC5
:100D9000112480915303909154034AE0BE016E5F89
:100DA0007F4F820F931FD2CE60914F0370915003FB
:100DB000809151039091520317CF60914B03709132
:100DC0004C0380914D0390914E030ECF60914703E9
:100DD000709148038091490390914A0305CF609137
:100DE0004303709144038091450390914603FCCEE8
:100DF00060913F03709140038091410390914203C1
:100E0000F3CE60913B0370913C0380913D03909140
:100E10003E03EACE60913703709138038091390325
:100E200090913A03E1CE6091330370913403809145
:100E3000350390913603D8CE60912F037091300323
:100E40008091310390913203CFCE60912B0370914A
:100E50002C0380912D0390912E038E010E5F1F4F66
:100E600021E049E0C6CE4AE0BE016E5F7F4F80912F
:100E70000001909101016ACE8091170381111FC07A
:100E800080E38A83F7CE6091020170910301809123
:100E9000040190910501A8CE80912803EFCF8091A5
:100EA0002A034AE0BE016E5F7F4F082E000C990BAB
:100EB0004DCE80912903E2CF80915703DFCF81E3AC
:100EC000E0CF67E472E00C9458051F920F920FB6C2
:100ED0000F9211242F933F934F935F936F937F93C0
:100EE0008F939F93AF93BF93EF93FF9385EE93E020
:100EF0000E94D101FF91EF91BF91AF919F918F918E
:100F00007F916F915F914F913F912F910F900FBE05
:100F10000F901F9018951F920F920FB60F921124E9
:100F20002F938F939F93EF93FF93E091F503F091AD
:100F3000F6038081E091FB03F091FC0382FD1BC06E
:100F400090818091FE038F5F8F732091FF03821742
:100F500041F0E091FE03F0E0EB51FC4F958F809360
:100F6000FE03FF91EF919F918F912F910F900FBEF4
:100F70000F901F9018958081F4CF1F920F920FB69B
:100F80000F9211242F933F938F939F93AF93BF930F
:100F900080910B0390910C03A0910D03B0910E036F
:100FA0003091F80223E0230F2D3758F50196A11D4B
:100FB000B11D2093F80280930B0390930C03A09330
:100FC0000D03B0930E038091F9029091FA02A09163
:100FD000FB02B091FC020196A11DB11D8093F902A4
:100FE0009093FA02A093FB02B093FC02BF91AF91E1
:100FF0009F918F913F912F910F900FBE0F901F9057
:10100000189526E8230F0296A11DB11DD2CF1F927D
:101010000F920FB60F9211242F933F934F935F932C
:101020006F937F938F939F93AF93BF93EF93FF93B0
:101030008091B900887F803609F44AC0F0F5883283
:1010400009F4A7C018F5803109F49BC0B8F48823CF
:1010500009F4F9C0883009F494C0FF91EF91BF9171
:10106000AF919F918F917F916F915F914F913F9140
:101070002F910F900FBE0F901F901895883109F493
:1010800088C0803251F78093D10214C0803409F4B3
:101090009DC040F48033B9F38833F9F68093D102D0
:1010A00085ECB0C0803509F485C0883509F496C058
:1010B000883499F60E94E203D0CF883909F48CC0B5
:1010C00038F5883729F050F4883611F0803729F642
:1010D00083E08093D2021092D00257C0883809F47E
:1010E0007BC0803919F0803809F0B7CF8091D002E9
:1010F000803208F071C0E091D00281E08E0F8093C1
:10110000D0028091BB00F0E0E055FD4F80833DC0F0
:10111000803B39F0E0F4803A09F479C0883A09F06C
:101120009CCF84E08093D2021092AF021092AE0264
:10113000E0910303F091040309958091AE028111BF
:101140000FC081E08093AE0210928E0209C0803CF5
:1011500009F4A6CF883C09F4A3CF883B09F07DCFE2
:10116000E091AF0281E08E0F8093AF02F0E0E25792
:10117000FD4F80818093BB009091AF028091AE02C1
:1011800029C08091F7028093BB0085EC8093BC005E
:1011900064CF9091F6028091F502981758F5E0918E
:1011A000F60281E08E0F8093F602F0E0EB52FD4FE5
:1011B0008081E9CFE091F60281E08E0F8093F60204
:1011C0008091BB00F0E0EB52FD4F80839091F602DE
:1011D0008091F5029817C8F285E8D8CFE091F60221
:1011E00081E08E0F8093F6028091BB00F0E0EB521D
:1011F000FD4F80838091D40281115CCF81E0809388
:10120000D30284EA8093BC001092D20226CF85ECF0
:101210008093BC001092D2028091D002803230F4D0
:10122000E091D002F0E0E055FD4F10826091D002D5
:1012300070E0E0910103F091020380EB92E00995E8
:101240001092D0020ACF1092D10234CFE5EEF3E033
:101250001382128288EE93E0A0E0B0E0848395834D
:10126000A683B78329EF31E03183208325EC30E07A
:101270003587248724EC30E03787268720EC30E060
:10128000318B208B21EC30E0338B228B22EC30E051
:10129000358B248B26EC30E0378B268B118E128E0B
:1012A000138E148EE2E8F4E0138212828483958315
:1012B000A683B7838BE092E0918380830895CF93D8
:1012C000DF93CDB7DEB7C75ED1090FB6F894DEBFA6
:1012D0000FBECDBF789484B5826084BD84B5816033
:1012E00084BD85B5826085BD85B5816085BD8091F1
:1012F0006E00816080936E00109281008091810069
:101300008260809381008091810081608093810060
:10131000809180008160809380008091B100846022
:101320008093B1008091B00081608093B000809183
:101330007A00846080937A0080917A008260809342
:101340007A0080917A00816080937A0080917A009F
:10135000806880937A001092C100E9ECF1E024915A
:10136000E5EBF1E08491882399F090E0880F991FD4
:10137000FC01EC56FE4FA591B491FC01E657FE4FDF
:10138000859194918FB7F8949C91292B2C938FBFC2
:10139000E091F503F091F60382E08083E091F103A0
:1013A000F091F2031082E091F303F091F40380E1F5
:1013B00080831092FD03E091F903F091FA0386E037
:1013C0008083E091F703F091F8038081806180834E
:1013D000E091F703F091F803808188608083E091C9
:1013E000F703F091F803808180688083E091F70330
:1013F000F091F80380818F7D808388E091E00E94E6
:10140000A0030E94AB042FB7F89480910B03909136
:101410000C03A0910D03B0910E032FBF8093E10345
:101420009093E203A093E303B093E40388E48093F2
:10143000B80083ED93E09093DE038093DD0381E6B3
:1014400097E090930A038093090310920803109287
:10145000070310920603109205030E941B038DE1FF
:1014600091E0909304038093030389E291E09093C9
:1014700002038093010384E18093BA0082E893E041
:10148000909300038093FF028DEB93E09093FE0214
:101490008093FD022FB7F89480910B0390910C0379
:1014A000A0910D03B0910E032FBF4091E103509125
:1014B000E2036091E3037091E4038C019D01041B3E
:1014C000150B260B370BB901A801443651056105F0
:1014D000710568F40E94DC0280E090E0892BD1F273
:1014E0000E94BD018823B1F20E940000D3CF8093F7
:1014F000E1039093E203A093E303B093E403EDEDE3
:10150000F1E08491E9ECF1E01491E5EBF1E0049174
:1015100070E060E0002399F081110E946002E02FEA
:10152000F0E0EE0FFF1FE256FE4FA591B4918C91B3
:10153000182391E080E009F490E0692F782FF1E022
:101540006F278DE00E94890285EE93E00E94B10131
:1015500018161906BCF58E0107581F4F78012FE0A9
:10156000E20EF11C680185EE93E00E948F011816CF
:10157000190644F40E151F0529F0D8018D938D012D
:101580001C92F1CFB601CE018B599F4F0E94580596
:10159000809157038823B1F0B601CE0101960E94D5
:1015A000A6196CE172E0CE0101960E949B19BE0162
:1015B0006B597F4FCE0101960E949B19CE01019677
:1015C0000E94A0038091DF039091E00301968A308E
:1015D0009105D4F49093E0038093DF030E94DC0232
:1015E000809106019091070197FD74CFE091DD0392
:1015F000F091DE038CEB93E009950FEF1FEF109352
:1016000007010093060166CF1092E0031092DF03FA
:1016100000912903C154DF4F0883CF5BD040209055
:101620005503309056030091530310915403C35750
:10163000DF4F19830883CD58D04080912803882339
:1016400011F40C94371320E030E040EA51E4C9541F
:10165000DF4F288339834A835B83C75BD04080E0B8
:1016600090E0A0EAB0E4C554DF4F88839983AA8351
:10167000BB83CB5BD04000914F031091500320916E
:10168000510330915203C757DF4F088319832A83D0
:101690003B83C958D04020914B0330914C0340917B
:1016A0004D0350914E03C157DF4F288339834A833E
:1016B0005B83CF58D0408091240390912503A09163
:1016C0002603B0912703CD56DF4F88839983AA83E1
:1016D000BB83C359D040C0904303D0904403E090F3
:1016E0004503F090460320E030E048EC52E4C701A7
:1016F000B6010E941A17C054DF4F688379838A832A
:101700009B83C05CD04020E030E048EC52E4609124
:101710003F037091400380914103909142030E94E6
:101720001A17CC53DF4F688379838A839B83C45C09
:10173000D04020E030E040EE50E4609147037091EB
:1017400048038091490390914A030E941A1920E0AE
:1017500030E048EC52E40E941A174B015C012FE87C
:1017600032EC45EF5CE30E941A19C853DF4F6883DF
:1017700079838A839B83C85CD040009120031091B9
:1017800021032091220330912303CC55DF4F08839E
:1017900019832A833B83C45AD04020E030E040E4E0
:1017A00050E460913B0370913C0380913D03909124
:1017B0003E030E941A1920E030E048EC52E40E94F7
:1017C0001A172B013C0120E030E04AE754E40E9464
:1017D0001A19C453DF4F688379838A839B83CC5C57
:1017E000D04027ED33EA40E75FE3C301B2010E9436
:1017F0001A17A50194010E94A91620E030E040E7E5
:1018000052E40E941A1920E030E04AE754E40E94B2
:101810001A17C053DF4F688379838A839B83C05D27
:10182000D04020912B0330912C0340912D035091F7
:101830002E03C455DF4F288339834A835B83CC5AF8
:10184000D0408091330390913403A0913503B0913F
:101850003603C856DF4F88839983AA83BB83C85950
:10186000D04020E030E040E252E460911C037091EF
:101870001D0380911E0390911F030E94A816C85259
:10188000DF4F688379838A839B83C85DD040009152
:1018900018031091190320911A0330911B03C452AD
:1018A000DF4F088319832A833B83CC5DD04010919E
:1018B0001703CA54DF4F1883C65BD0400091000164
:1018C00010910101209113033091140340911503ED
:1018D00050911603C456DF4F288339834A835B83B4
:1018E000CC59D04080910F0390911003A091110327
:1018F000B0911203C056DF4F88839983AA83BB83BC
:10190000C05AD0402AE037ED43E25DE3C701B6019B
:101910000E941A1920E030E040E85FE30E94A91617
:1019200020E030E048EC52E40E941A17C855DF4F1F
:10193000688379838A839B83C85AD0409B01AC011A
:1019400060E070E080E89FE30E94A816C055DF4F7A
:10195000688379838A839B83C05BD04090912A03FC
:10196000C956DF4F9883C759D04020E030E043ECA0
:1019700053E4CD56DF4F688179818A819B81C359B9
:10198000D0400E941A1920E034E244E759E40E9452
:101990001A1724EA30E74DEF5FE30E941A19C85581
:1019A000DF4F288139814A815B81C85AD0400E942B
:1019B0001A19C052DF4F688379838A839B83C05E84
:1019C000D040A5E0B0E0CC54DF4FB983A883C45B1E
:1019D000D0409801110F440B550BCC51DF4F288399
:1019E00039834A835B83C45ED040C154DF4F088192
:1019F000CF5BD0400111BBC0C101880F991F880F78
:101A0000991FFC01EB56FE4F2081318142815381A9
:101A1000C157DF4F288339834A835B83CF58D04037
:101A20008B5C9E4FDC010D911D912D913C91C85610
:101A3000DF4F088319832A833B83C859D040812C08
:101A4000912C80E8A82E8FE3B82E412C512C612CCC
:101A50009FEB792EB7E12B16310469F181010F5FFD
:101A60001F4F000F111F000F111FF801EB56FE4F03
:101A7000C157DF4F288139814A815B81CF58D040DF
:101A800060817181828193810E94A8162B013C01A3
:101A9000F801EB5CFE4FC856DF4F288139814A813F
:101AA0005B81C859D04060817181828193810E949D
:101AB000A8164B015C01C357DF4F08811981CD582F
:101AC000D040B801110F880B990B0E94C8176B0109
:101AD0007C01A30192010E941A1920E030E040E746
:101AE00052E40E941A17C157DF4F288139814A8179
:101AF0005B81CF58D0400E94A916C954DF4F28817E
:101B000039814A815B81C75BD0400E94A816C157CA
:101B1000DF4F688379838A839B83CF58D040A501A8
:101B20009401C701B6010E941A1920E030E040E795
:101B300052E40E941A17C856DF4F288139814A8122
:101B40005B81C859D0400E94A916C554DF4F288137
:101B500039814A815B81CB5BD0400E94A816C85670
:101B6000DF4F688379838A839B83C859D040C157EC
:101B7000DF4F288139814A815B81CF58D040C757D8
:101B8000DF4F688179818A819B81C958D0400E944A
:101B9000A8166B017C012CEE31E548E75FE3CC55DC
:101BA000DF4F688179818A819B81C45AD0400E942D
:101BB0001A19C853DF4F288139814A815B81C85C7B
:101BC000D0400E94A916CC55DF4F688379838A8361
:101BD0009B83C45AD04020E030E04AE754E40E949E
:101BE0001A1920E030E0A9010E94A916C453DF4F62
:101BF000288139814A815B81CC5CD0400E94A81643
:101C00004B015C01C053DF4F288139814A815B81E0
:101C1000C05DD040C455DF4F688179818A819B8146
:101C2000CC5AD0400E94A916C455DF4F68837983EF
:101C30008A839B83CC5AD040C157DF4F688179811A
:101C40008A819B81CF58D0400E945E049B01AC01E9
:101C5000C856DF4F688179818A819B81C859D040FD
:101C60000E941A1920E030E048EC52E40E941A1752
:101C7000CC52DF4F688379838A839B83C45DD040D5
:101C800020E030E04AEF53E4C501B4010E94A916F8
:101C90004B015C012AE939E949E95EE3C701B60174
:101CA0000E941A19C852DF4F288139814A815B810D
:101CB000C85DD0400E941A1920E030E0A9010E94BE
:101CC000A9162B013C01A7019601C701B6010E948C
:101CD000A91620E030E040E252E40E941A19A30164
:101CE00092010E94A9162B013C012DEC3CEC4CE426
:101CF0005DE3C701B6010E941A19C452DF4F288163
:101D000039814A815B81CC5DD0400E941A19A301C0
:101D100092010E94A9169B01AC01C501B4010E9469
:101D2000A8164B015C0127ED33EA40E85FE3C701E9
:101D3000B6010E941A1926E031E845EA5FE30E94E5
:101D40001A19CD56DF4F288139814A815B81C359E9
:101D5000D0400E941A19C054DF4F288139814A812E
:101D60005B81C05CD0400E941A19CC53DF4F2881A0
:101D700039814A815B81C45CD0400E941A192DECE4
:101D80003CEC4CE45FE30E941A192AE037ED43E291
:101D90005DE30E941A1920E030E04AE754E40E9413
:101DA0001A1920E030E040E752E40E941A17A5011A
:101DB00094010E94A9164B015C01CC51DF4F688150
:101DC00079818A819B81C45ED0400E94C8176B01D3
:101DD0007C01CA54DF4F1881C65BD04020E030E060
:101DE00040E753E4111104C020E030E040EF52E43A
:101DF000C701B6010E941A199B01AC01C501B401CB
:101E00000E94A9162FE832EC45E75DE30E941A19FB
:101E100027ED33EA40E85FE30E941A1726E031E835
:101E200045EA5FE30E941A17CD56DF4F28813981BA
:101E30004A815B81C359D0400E941A17C757DF4FB0
:101E4000288139814A815B81C958D0400E94A916F6
:101E5000C757DF4F688379838A839B83C958D040F3
:101E6000CA54DF4F0881C65BD040002309F411C477
:101E700020E030E048E452E4C701B6010E941A199C
:101E800020E030E04AE754E40E941A1720E030E0F6
:101E900040E752E40E941A17C456DF4F2881398167
:101EA0004A815B81CC59D0400E94A9164B015C014C
:101EB00020E030E04CE852E4C701B6010E941A1954
:101EC00020E030E040E752E40E941A1720E030E0C2
:101ED0004AE754E40E941A17C056DF4F288139811F
:101EE0004A815B81C05AD0400E94A9166B017C01D7
:101EF000C855DF4F288139814A815B81C85AD0405B
:101F0000C157DF4F688179818A819B81CF58D0404A
:101F10000E941A192B013C01C055DF4F28813981DD
:101F20004A815B81C05BD040C757DF4F68817981B0
:101F30008A819B81C958D0400E941A199B01AC012B
:101F4000C301B2010E94A916C757DF4F6883798386
:101F50008A839B83C958D04020E030E0A9010E94C9
:101F60001517C956DF4F1881C759D040116087FD3A
:101F700017C020E030E044E352E4C757DF4F6881E8
:101F800079818A819B81C958D0400E949F18C95687
:101F9000DF4F1881C759D04018160CF09FC314604A
:101FA000A5019401C055DF4F688179818A819B81A9
:101FB000C05BD0400E941A19C052DF4F288139817E
:101FC0004A815B81C05ED0400E94A916C456DF4F93
:101FD000688379838A839B83CC59D040CC52DF4F6E
:101FE000288139814A815B81C45DD040CD56DF4F65
:101FF000688179818A819B81C359D0400E941A19D6
:1020000020E030E04AE754E40E941A17C855DF4F39
:10201000288139814A815B81C85AD0400E941A19AF
:102020004B015C01C055DF4F288139814A815B81BA
:10203000C05BD040C701B6010E941A199B01AC01D8
:10204000C501B4010E94A916C056DF4F6883798389
:102050008A839B83C05AD040CD56DF4F2881398177
:102060004A815B81C359D040C456DF4F6881798172
:102070008A819B81CC59D0400E941A1724EA30E70C
:102080004DEF5FE30E941A1720E034E244E759E481
:102090000E941A196B017C01C757DF4F6881798153
:1020A0008A819B81C958D0400E945E044B015C012B
:1020B00020E030E84BE355E4C701B6010E949F18C9
:1020C00018160CF00DC31260C956DF4F1883C7599C
:1020D000D040C357DF4F08811981CD58D0400F5FE2
:1020E0001F4FC357DF4F19830883CD58D0400C339F
:1020F00011057CF01FEF211A310AC357DF4F1982F7
:102100001882CD58D04028E12216310414F0312C29
:10211000212CCC54DF4F08811981C45BD040015081
:102120001109CC54DF4F19830883C45BD040012BC5
:1021300009F05BCC3092560320925503C357DF4F12
:1021400008811981CD58D040109354030093530354
:10215000C956DF4F1881C759D04010932A03C4567F
:10216000DF4F288139814A815B81CC59D04020934F
:102170001303309314034093150350931603C05672
:10218000DF4F88819981AA81BB81C05AD04080935A
:102190000F0390931003A0931103B0931203C09206
:1021A0002F03D0923003E0923103F092320320E00B
:1021B00030E04AE754E4BC01CD010E941A19A501A0
:1021C00094010E941A17CD56DF4F288139814A8128
:1021D0005B81C359D0400E941A1720E030E048ECE0
:1021E00052E40E941A196093370370933803809366
:1021F000390390933A03C757DF4F088119812A8129
:102200003B81C958D04000934F0310935003209353
:10221000510330935203C157DF4F288139814A81DE
:102220005B81CF58D04020934B0330934C034093B5
:102230004D0350934E03C856DF4F88819981AA8180
:10224000BB81C859D0408093330390933403A0934B
:102250003503B0933603CC55DF4F088119812A81AD
:102260003B81C45AD0400093200310932103209354
:10227000220330932303C455DF4F288139814A81DB
:102280005B81CC5AD04020932B0330932C03409396
:102290002D0350932E0310925803809157038823E7
:1022A00009F428C284E5809358038DE38093590391
:1022B0004AE0BE016F5F7F4FC1010E94FD138A811A
:1022C0000AE513E0811105C080E380935A030BE512
:1022D00013E0BE016F5F7F4FC8010E94A619D801AD
:1022E0000D900020E9F78D01015011098AE3F801F2
:1022F00080834AE0BE016F5F7F4F809153039091CE
:1023000054030E94FD138A817801882309F4EAC1ED
:10231000FFEFEF1AFF0ABE016F5F7F4FC7010E94F8
:10232000A619F70101900020E9F731976F01BFEF7F
:10233000CB1ADB0A80E2808380915703882349F01F
:1023400089E4D6018C938DE311968C93F601329635
:102350006F0160914F0370915003809151039091F0
:102360005203860121E047E00E943904F601019002
:102370000020E9F7319780E28083809157037F0145
:102380000FEFE01AF00A882341F08FE481837F0188
:1023900013E0E10EF11C8DE3828360914B03709199
:1023A0004C0380914D0390914E03870121E047E05B
:1023B0000E943904F70101900020E9F7319780E28B
:1023C0008083809157037F012FEFE21AF20A88235E
:1023D00041F088E481837F0133E0E30EF11C8DE35B
:1023E00082836091470370914803809149039091E3
:1023F0004A03870121E047E00E943904F701019078
:102400000020E9F7319780E28083809157037F01B4
:102410004FEFE41AF40A882341F085E481837F01B9
:1024200053E0E50EF11C8DE38283609143037091CC
:1024300044038091450390914603870121E047E0E2
:102440000E943904F70101900020E9F7319780E2FA
:1024500080838091570381117DC17F018FEFE81A3E
:10246000F80A60913F03709140038091410390917D
:102470004203870121E047E00E943904F7010190FF
:102480000020E9F7319780E28083809157037F0134
:10249000AFEFEA1AFA0A882341F086E481837F01CC
:1024A000B3E0EB0EF11C8DE3828360913B037091EE
:1024B0003C0380913D0390913E03870121E047E07A
:1024C0000E943904F70101900020E9F7319780E27A
:1024D0008083809157037F010FEFE01AF00A882371
:1024E00041F089E681837F0113E0E10EF11C8DE369
:1024F0008283609137037091380380913903909102
:102500003A03870121E047E00E943904F701019076
:102510000020E9F7319780E28083809157037F01A3
:102520002FEFE21AF20A882341F08FE681837F01C0
:1025300033E0E30EF11C8DE38283609133037091ED
:1025400034038091350390913603870121E047E001
:102550000E943904F70101900020E9F7319780E2E9
:102560008083809157037F014FEFE41AF40A882398
:1025700041F083E481837F0153E0E50EF11C8DE39C
:10258000828360912F037091300380913103909189
:102590003203870121E047E00E943904F7010190EE
:1025A0000020E9F7319780E2808380915703811101
:1025B000DAC07F018FEFE81AF80A60912B0370915F
:1025C0002C0380912D0390912E03870121E049E097
:1025D0000E943904F70101900020E9F7319780E269
:1025E0008083809157036F01AFEFCA1ADA0A8823FC
:1025F00041F083E581836F01B3E0CB0ED11C8DE305
:102600008283609102017091030180910401909195
:102610000501860121E047E00E943904F60101909E
:102620000020E9F731978F010F5F1F4F80E2808311
:1026300080915703882309F49FC060E272E0C801CB
:102640000E94A619F80101900020E9F7BF0161502E
:10265000710980912A0340E1082E000C990B0E9419
:10266000FD1388E593E00E94A0030C94EE0AC95480
:10267000DF4F188219821A821B82C75BD040C55473
:10268000DF4F188219821A821B82CB5BD0400C94D8
:102690003B0B20E030E040EC51E4C701B6010E9462
:1026A0001A1920E030E04AE754E40E941A1720E0AB
:1026B00030E040E752E40E941A17C456DF4F2881E9
:1026C00039814A815B81CC59D0400E94A9164B01C7
:1026D0005C0120E030E040EA51E4EECB1A7F60CCB0
:1026E0001D7FF2CC22E0E20EF11C80E3D8011196AE
:1026F0008C9311CEC357DF4F08811981CD58D0403C
:10270000B801110F880B990B0E94C81720E030E028
:1027100040E752E40E941A176B017C01B101330CAF
:10272000880B990B0E94C8179B01AC01C701B60129
:102730000E94A91608E513E023E048E00E9439044E
:10274000F80101900020E9F731976F011FEFC11ADE
:10275000D10AF0CD85E681837F0193E0E90EF11C7B
:102760008DE382837ECE8BE681837F0193E0E90E49
:10277000F11C8DE3828321CF80912A034AE0B801C6
:102780006BCFEF920F931F93CF93DF93E80134E069
:1027900047FD34E1042E000C550B57FF03C0519543
:1027A00041955109E32E022F242FAE010E942A14D5
:1027B000CE01DF91CF911F910F91EF900895FC0111
:1027C00088279927E89421912032E9F3293010F0E5
:1027D0002E30C8F32B3241F02D3239F4689404C006
:1027E0000E940814820F911D219120532A30C0F3BA
:1027F0001EF4909581959F4F0895BB274A3031F480
:10280000992322F4BDE2909581959F4F0C94111469
:102810007AE0979F902D879F802D910D1124089528
:10282000BB27FB015527AA27880F991FAA1FA417AA
:1028300010F0A41B83955051B9F7A05DAA3308F09E
:10284000A95DA193009779F7B111B1931192CB01D2
:102850000C946116A9E0B0E0E0E3F4E10C94771683
:102860006A01F22EB02E102FFBE3AF2EA01608F453
:102870001BE31F5F012F27E0AE014F5F5F4F0E94F8
:102880008915BC018981982F9970913009F43FC056
:102890009BE2E1FC04C09E2D9170E0FC3AC05E2DED
:1028A0005071E82FE87083FF46C084E0911101C0A9
:1028B00083E0EF2DE81B8F1508F0E0E0D6018E2FA6
:1028C00020E2552351F1992329F0D6019C93C601AA
:1028D00001966C0196012D5F3F4FE2FE24C08EE40D
:1028E000D6018C9391E411969C93119712968C9338
:1028F000D9018E2F90E281111BC0E20FF32FF11D41
:1029000010828EEF9FEF2996ECE00C9493169DE2D7
:10291000C6CF90E2C4CF2D9381508111FCCFCE0E53
:10292000D11CE0E0D0CF8EE6D6018C9391E6DBCFD0
:102930009D938150E0CF482F447082FF3DC084E0DA
:10294000911101C083E08F1510F4EF2DE81BD60123
:102950008E2F20E2552309F1992329F0D6019C936B
:10296000C60101966C0196012D5F3F4FE2FE1BC030
:1029700089E4D6018C938EE411968C93119786E4AA
:1029800012968C93D9018E2F90E2882309F4B5CF4B
:102990009D938150FACF2D9381508111FCCFCE0EA3
:1029A000D11CE0E0D9CF89E6D6018C938EE6119652
:1029B0008C93119786E6E4CF9B0177FF02C030E04D
:1029C00020E0A1E0B0E0911102C0B0E0A0E0F90188
:1029D0003196AE0FBF1F8B2C912CBB2009F461C028
:1029E0005401EFEFAE1ABE0AAA0DBB1DFA161B0664
:1029F00019F014F04F2D4A1B511188C0E3FC59C047
:102A00007601A42FB0E2A1114FC0C40ED11C9923AE
:102A100009F45BC040E0D6011196F60190836D0188
:102A2000552309F448C0012F060F9A81582F507181
:102A300084FF03C0913309F4015010160CF047C015
:102A4000093008F008E0EEE2FE2E5B01A01AB108A2
:102A500085019194819491082F3F320729F4D60182
:102A6000FC92F60131966F016217730794F1021719
:102A700013077CF5DB01A21BB30BAA24A394B12C92
:102A8000AC0EBD1EAA0DBB1D11968C9121503109B3
:102A9000D601119628153905F4F0F60180836D01F1
:102AA000DBCFB12CA12CA0CFF701B1937F01A150B6
:102AB000AACF9111B0CFD601942F50E302C05D93FD
:102AC00091509111FCCFC40ED11C40E0ACCF01E07D
:102AD000BACF80E3DBCF6217730731F4963388F403
:102AE000953311F4552369F0F6018083FD01842F9D
:102AF00090E2811108C0A40FB11D1C9290E080E00B
:102B000002CF81E3F1CF91938150F3CF911183CF25
:102B10008ACF283008F027E03327DA01990F311DDA
:102B200087FD916000966105710539F432602E5F72
:102B30003D9330E32A95E1F708959F3F30F08038C8
:102B40007105610509F03C5F3C5F3D93913008F0F1
:102B50008068911DDF93CF931F930F93FF92EF92A5
:102B6000192F987F9695E92F96959695E90FFF274F
:102B7000E651FF4F99273327EE24FF24A701E701F1
:102B800005900894079428F4360FE71EF81E491F95
:102B9000511D660F771F881F991F0694A1F7059096
:102BA000079428F4E70EF81E491F561FC11D770F22
:102BB000881F991F661F0694A1F70590079428F4B3
:102BC000F80E491F561FC71FD11D880F991F661F7A
:102BD000771F0694A1F70590079420F4490F561F1C
:102BE000C71FD81F990F661F771F881F0694A9F764
:102BF00084911095177041F0D695C79557954795D4
:102C0000F794E7941A95C1F7E0E9F0E0689415901D
:102C1000159135916591959105907FE27395E11835
:102C2000F10A430B560BC90BD009C0F7E10CF11E9A
:102C3000431F561FC91FD01D7EF4703311F48A95AF
:102C4000E6CFE894015030F0080F0AF4002702178D
:102C500008F4202F2395022F7A3328F079E37D930F
:102C60002A95E9F710C07D932A9589F606949795E1
:102C70006795379517951794E118F10A430B560B92
:102C8000C90BD00998F023957E9173957A3308F09B
:102C900070E37C932013B8F77E9170617D9330F0E0
:102CA000839571E37D9370E32A95E1F71124EF900A
:102CB000FF900F911F91CF91DF91992787FD9095FC
:102CC0000895DC01FC01672F71917723E1F73297BA
:102CD00004C07C916D9370836291AE17BF07C8F3F7
:102CE00008952F923F924F925F926F927F928F92B0
:102CF0009F92AF92BF92CF92DF92EF92FF920F938B
:102D00001F93CF93DF93CDB7DEB7CA1BDB0B0FB694
:102D1000F894DEBF0FBECDBF09942A883988488851
:102D20005F846E847D848C849B84AA84B984C884E7
:102D3000DF80EE80FD800C811B81AA81B981CE0FDE
:102D4000D11D0FB6F894DEBF0FBECDBFED010895C3
:102D50005058BB27AA270E94C0160C9465180E94E1
:102D6000571838F00E945E1820F039F49F3F19F48C
:102D700026F40C942D180EF4E095E7FB0C9427181C
:102D8000E92F0E94761858F3BA1762077307840771
:102D9000950720F079F4A6F50C9498180EF4E095B8
:102DA0000B2EBA2FA02D0B01B90190010C01CA0105
:102DB000A0011124FF27591B99F0593F50F4503EB0
:102DC00068F11A16F040A22F232F342F4427585FA2
:102DD000F3CF469537952795A795F0405395C9F7BA
:102DE0007EF41F16BA0B620B730B840BBAF0915072
:102DF000A1F0FF0FBB1F661F771F881FC2F70EC011
:102E0000BA0F621F731F841F48F4879577956795E3
:102E1000B795F7959E3F08F0B0CF9395880F08F0CF
:102E20009927EE0F9795879508950E94031808F447
:102E300081E008950E942E170C9465180E945E1878
:102E400058F00E94571840F029F45F3F29F00C9485
:102E5000271851110C9499180C942D180E9476186B
:102E600068F39923B1F3552391F3951B550BBB27B9
:102E7000AA2762177307840738F09F5F5F4F220FFE
:102E8000331F441FAA1FA9F335D00E2E3AF0E0E8F5
:102E900032D091505040E695001CCAF72BD0FE2F3F
:102EA00029D0660F771F881FBB1F261737074807D3
:102EB000AB07B0E809F0BB0B802DBF01FF2793588B
:102EC0005F4F3AF09E3F510578F00C9427180C9410
:102ED00099185F3FE4F3983ED4F38695779567950C
:102EE000B795F7959F5FC9F7880F911D96958795C0
:102EF00097F90895E1E0660F771F881FBB1F6217DF
:102F000073078407BA0720F0621B730B840BBA0B9C
:102F1000EE1F88F7E095089529F416F00C94271811
:102F20000C9498180C942D180E947E18A8F39638CB
:102F3000A0F707F80F92E8942BE33AEA48EB5FE733
:102F40000E9430190F920F920F924DB75EB70F92F9
:102F50000E94E618E8E6F0E00E9430184F915F9179
:102F6000EF91FF91E595EE1FFF1F49F0FE57E068D6
:102F70004427EE0F441FFA95E1F74195550B0E9447
:102F8000B0180F9007FE0C94A4180895E89409C097
:102F900097FB3EF490958095709561957F4F8F4F8C
:102FA0009F4F9923A9F0F92F96E9BB279395F695A2
:102FB000879577956795B795F111F8CFFAF4BB0F20
:102FC00011F460FF1BC06F5F7F4F8F4F9F4F16C084
:102FD000882311F096E911C0772321F09EE8872F0E
:102FE000762F05C0662371F096E8862F70E060E0CA
:102FF0002AF09A95660F771F881FDAF7880F969543
:10300000879597F90895990F0008550FAA0BE0E8E6
:10301000FEEF16161706E807F907C0F0121613069A
:10302000E407F50798F0621B730B840B950B39F4DA
:103030000A2661F0232B242B252B21F408950A2640
:1030400009F4A140A6958FEF811D811D089597F980
:103050009F6780E870E060E008959FEF80EC08953E
:10306000DF93CF931F930F93FF92EF92DF927B0139
:103070008C01689406C0DA2EEF010E942D19FE0122
:10308000E894A5912591359145915591A6F3EF01CD
:103090000E94C016FE019701A801DA9469F7DF903B
:1030A000EF90FF900F911F91CF91DF910895002431
:1030B0000A941616170618060906089500240A949D
:1030C00012161306140605060895092E0394000C23
:1030D00011F4882352F0BB0F40F4BF2B11F460FFB2
:1030E00004C06F5F7F4F8F4F9F4F089557FD9058DB
:1030F000440F551F59F05F3F71F04795880F97FBBC
:10310000991F61F09F3F79F0879508951216130675
:103110001406551FF2CF4695F1DF08C016161706A4
:103120001806991FF1CF86957105610508940895D9
:10313000E894BB2766277727CB0197F908950E946B
:10314000031808F48FEF08959B01AC0160E070E074
:1031500080E89FE30C941A170C9427180C94871995
:103160000E947E18D8F39923C9F3940F511DA3F33D
:103170009150504094F059F0882332F0660F771F39
:10318000881F91505040C1F79E3F51052CF7880F82
:10319000911D9695879597F908955F3FACF0983EFD
:1031A0009CF0BB27869577956795B79508F4B16035
:1031B0009395C1F7BB0F58F711F460FFE8CF6F5F2D
:1031C0007F4F8F4F9F4FE3CF0C949918FA01DC018A
:1031D000AA0FBB1F9B01AC01BF5728F4222733273E
:1031E0004427507820C0B75190F4AB2F0024469567
:1031F00037952795011CA395D2F3002071F0220F7B
:10320000331F441FB395DAF30ED00C94A816613027
:103210007105A0E88A07B94630F49B01AC01662726
:10322000772788279078309621F020833183428356
:10323000538308950E942D190C9465180E94571805
:1032400038F00E945E1820F0952311F00C94271896
:103250000C942D1811240C9499180E94761870F370
:10326000959FC1F3950F50E0551F629FF001729F2B
:10327000BB27F00DB11D639FAA27F00DB11DAA1F3A
:10328000649F6627B00DA11D661F829F2227B00D87
:10329000A11D621F739FB00DA11D621F839FA00D12
:1032A000611D221F749F3327A00D611D231F849F62
:1032B000600D211D822F762F6A2F11249F575040B9
:1032C0009AF0F1F088234AF0EE0FFF1FBB1F661F34
:1032D000771F881F91505040A9F79E3F510580F0FD
:1032E0000C9427180C9499185F3FE4F3983ED4F39C
:1032F000869577956795B795F795E7959F5FC1F7A1
:10330000FE2B880F911D9695879597F908959F3FFD
:1033100031F0915020F4879577956795B795880F90
:10332000911D9695879597F90895EE0FFF1F0590CB
:10333000F491E02D0994FB01DC010D900020E9F7E8
:10334000119701900D920020E1F70895FB01DC0137
:0E33500001900D920020E1F70895F894FFCF50
:10335E0002000000A041FFFF2320486F7573652017
:10336E00616E642041697220436F6E646974696F87
:10337E006E65722053696D756C6174696F6E20563F
:10338E00332E30390000007C4200008C4200009049
:10339E00420000964200008E4200009A420000A2B7
:1033AE00420000A4420000A4420000A84200009E79
:1033BE004200009442000082420000784200006009
:1033CE00420000604200006C420000704200007833
:1033DE0042000078420000784200007C42000084E7
:1033EE0042000078420000984100008841000084AD
:1033FE0041000080410000804100007841000070D3
:10340E004100007041000078410000804100008CB6
:10341E0041000098410000AC410000B8410000BCE2
:10342E00410000C0410000C0410000BC410000BC92
:10343E00410000B8410000B0410000A8410000A0CA
:10344E004100009C4100000000F301530180014047
:10345E0002B1018F01A301000000006E0363037F20
:10346E000339035C0349033A030D0A00203E200092
:06347E00573D307800000C
:00000001FF
